:040000000BEF00F012
:100008006982FACF49F0FBCF4AF04DED02F028EFB4
:1000180005F0000E0001846F000E0001856F000ED0
:10002800866F000E876F000E886F3EC057F0000E77
:10003800E3EC04F0000E41EC05F03E6E81824CECDE
:1000480005F035C085F036C086F037C087F038C077
:1000580088F0DC0E000185250001806F050E000187
:1000680086210001816F000E000187210001826F47
:10007800000E000188210001836F35500001805D6A
:10008800365000018159375000018259385000011B
:100098008359D8B004D0010E0001846FFAD0EBEC7C
:1000A80003F0000E98EC03F060C089F061C08AF09C
:1000B800E1D000018A5105E1B50E0001895DD8A0A3
:1000C800E3D0010E0001846F828435C085F036C00C
:1000D80086F037C087F038C088F012D0000E98EC50
:1000E80003F060C089F061C08AF000018A5105E11F
:1000F800B50E0001895DD8A002D0819201D081821D
:10010800E80E000185250001806F030E000186219D
:100118000001816F000E000187210001826F000E2F
:10012800000188210001836F00018051355C0001C6
:10013800815136580001825137580001835138588F
:10014800D8B0A2D0CBD700018A5105E1C90E000171
:10015800895DD8A099D0010E0001846F82828288BF
:1001680035C085F036C086F037C087F038C088F0D3
:1001780012D0000E98EC03F060C089F061C08AF0DC
:1001880000018A5105E1C90E0001895DD8A002D09D
:10019800819201D08182E80E000185250001806FDF
:1001A800030E000186210001816F000E00018721E6
:1001B8000001826F000E000188210001836F000199
:1001C8008051355C00018151365800018251375801
:1001D800000183513858D8B057D0CBD700018A5185
:1001E80005E1DD0E0001895DD8A04ED0010E0001A9
:1001F800846F82808286828C35C085F036C086F016
:1002080037C087F038C088F012D0000E98EC03F0A1
:1002180060C089F061C08AF000018A5105E1DD0EF5
:100228000001895DD8A002D0819201D08182E80EB8
:10023800000185250001806F030E00018621000161
:10024800816F000E000187210001826F000E0001FE
:1002580088210001836F00018051355C00018151C4
:100268003658000182513758000183513858D8B0A8
:100278000BD0CBD73E50010AD8B41BD7030AD8B449
:1002880062D7010AD8B4AAD7000184510001D8B4B2
:10029800E0D68192120058EC05F0F7EC04F0818466
:1002A80050EC05F035EC05F054EC05F00BEC05F0DE
:1002B8004CEC05F081921ED082B003D0686A682A9F
:1002C80001D0686A82506818FE0B6818826E82B482
:1002D80003D0686A682A01D0686A6846684682500E
:1002E8006818FB0B6818826E000E586E500E576E19
:1002F800C8EC04F081A0E0D78290000E356E000EA5
:10030800366E000E376E000E386E000E0001946FC8
:10031800000E936F0001945127E10A0E0001935DCE
:10032800D8B022D0D89000019335D96E0001943509
:10033800DA6E150ED926000EDA22300EDE6E030EA6
:10034800DD6ED89000019335D96E00019435DA6ED0
:10035800010ED926000EDA22000EDE6E000EDD6ECA
:100368000001934B942BD6D7000E296E000E2A6EEF
:10037800000E2B6E000E2C6E000E2D6E000E2E6ED3
:10038800000E2F6E000E306E52D0040E3FEC03F0BC
:1003980060C091F061C092F04CEC05F0000192BF92
:1003A8000FD0E50E0001915D030E00019259D8A00F
:1003B80007D08280828282868288828C828E2ED02A
:1003C800000192BF0DD07C0E0001915D030E00016B
:1003D8009259D8A005D082808282828682881ED0D7
:1003E800000192BF0BD0310E0001915D030E000198
:1003F8009259D8A003D08280828210D082808282D3
:10040800000E586E640E576EC8EC04F0829082920B
:10041800000E586E640E576EC8EC04F0E1EC02F062
:100428000001906F000190510001D8A409D0385004
:10043800371006E1E80E355C030E3658D8A0A5D76C
:10044800000E41EC05F03E6E040E3E6003D03E50B7
:10045800D8A402D0010E3E6EE1EC02F00001906FCC
:1004680006D00DEC00F00ED05FEC04F00BD00001CC
:100478009051010AD8B406D0030AD8B4F2D7010AB9
:10048800D8B4F2D739503A10D8B4E6D782EC04F091
:10049800E3D70600E9CF4BF0EACF4CF0E1CF4DF0BF
:1004A800E2CF4EF0D9CF4FF0DACF50F0F3CF51F082
:1004B800F4CF52F0F6CF53F0F7CF54F0F8CF55F011
:1004C800F5CF56F0F2BAF2A414D0F2943F2A010EF6
:1004D8003526000E362237223822320E3F18D8A48D
:1004E80004D0000E3F6E394A3A2A630ED76EC00E0A
:1004F800D66EF2B2F2A843D0F29231C041F032C0C7
:1005080042F033C043F034C044F0411E421E431E43
:10051800441E412A000E42224322442235504124DF
:10052800456E36504220466E37504320476E38504D
:100538004420486E48504710461004E1020E455CBE
:10054800D8A01DD081B006D0F18C000E3A6E000EF6
:10055800396E0DD0F19C39C03BF0010E3D6E35C0AF
:100568002DF036C02EF037C02FF038C030F035C02F
:1005780031F036C032F037C033F038C034F056C0EE
:10058800F5FF55C0F8FF54C0F7FF53C0F6FF52C03F
:10059800F4FF51C0F3FF50C0DAFF4FC0D9FF4EC07F
:1005A800E2FF4DC0E1FF4CC0EAFF4BC0E9FF4AC083
:1005B800FBFF49C0FAFF69921100000E5B6E000E46
:1005C8005C6E000E5D6E000E5E6E3D50D8B451D06C
:1005D800000E3D6E29C057F02AC058F02BC059F0C4
:1005E8002CC05AF0571E581E591E5A1E572A000E64
:1005F800582259225A222D5057245B6E2E505820CB
:100608005C6E2F5059205D6E30505A205E6E0C0E75
:100618003B600BD03E2A030E3E6402D0010E3E6EB4
:10062800000E3A6E000E396E02D0030E12005E50B4
:100638005D105C1014E1320E5B5CD8B010D03E0641
:100648003E50D8A402D0030E3E6E3E063E50D8A4BB
:1006580002D0030E3E6E82EC04F0020E12002DC092
:1006680029F02EC02AF02FC02BF030C02CF0010E3C
:100678001200000E1200646E000E666E000E656EAB
:10068800000E676E080E676401D01ED06750626E58
:10069800636AD89062366336020E6226000E6322C1
:1006A800150E6224D96E000E6320DA6E6750020DB3
:1006B800150EF324E16E000EF420E26EDECFE6FFA5
:1006C800DDCFE5FF672ADED76450A5EC04F059C0FA
:1006D80027F05AC028F0000E676E090E676401D033
:1006E80014D06750020D150EF324D96E000EF420B5
:1006F800DA6EDECF62F0DDCF63F065506224656E9E
:1007080066506320666E672AE8D765C057F066C0F2
:1007180058F0000E5A6E0A0E596E36EC04F057C0A7
:1007280060F058C061F01200646E000E666E000E34
:10073800656E000E676E080E676401D01ED06750A4
:10074800626E636AD89062366336020E6226000EC5
:100758006322010E6224D96E000E6320DA6E6750A0
:10076800020D010EF324E16E000EF420E26EDECFDE
:10077800E6FFDDCFE5FF672ADED76450A5EC04F07D
:1007880059C013F05AC014F0000E676E090E676462
:1007980001D00ED06750020D010EF324D96E000E61
:1007A800F420DA6EDE506526DD506622672AEED721
:1007B80065C057F066C058F0000E5A6E0A0E596EA2
:1007C80036EC04F057C060F058C061F012003FD01A
:1007D80039503A10D8A402D0828412003A5006E167
:1007E800020E395CD8B002D082941200000E3A6E24
:1007F800000E396E120039503A10D8A403D0828204
:10080800828812003A5007E1020E395CD8B003D052
:10081800829282981200000E3A6E000E396E120013
:1008280039503A10D8A404D082808286828C120073
:100838003A5008E1020E395CD8B004D08290829612
:10084800829C1200000E3A6E000E396E12003E5065
:10085800010AD8B4BDD7030AD8B4CDD7010AD8A4A1
:100868001200DED7000E5D6E000E5C6E59505A10F5
:10087800D8B41CD0010E5B6E04D0D89059365A36C5
:100888005B2A5AAEFAD7D8905C365D365950575C19
:100898005A505858D8A005D05950575E5A50585AEF
:1008A8005C80D8905A3259325B2EEDD75CC057F035
:1008B8005DC058F012004CEC05F0819482B403D06E
:1008C8005D6A5D2A01D05D6A5D465D4682505D18AD
:1008D800FB0B5D18826E82B203D05D6A5D2A01D07F
:1008E8005D6A5D4682505D18FD0B5D18826E000ED4
:1008F800586E500E576EC8EC04F0DFD74CEC05F07C
:1009080015D08280828282841200828082828284D0
:1009180082868288828A120082808282828482868B
:100928008288828A828C828E818612003E50010AD9
:10093800D8B4E7D7030AD8B4E8D7010AD8A4120074
:10094800EBD75D6E5DC05BF0070E5B16D8905B362B
:10095800D8905B340109C26E1AEC05F01AEC05F068
:10096800C282C2B2FED79E9CC350C4CF5BF05C6A01
:100978005BC05CF05B6A5B105E6E5C505F6E5EC075
:1009880059F05FC05AF01200000E5A6E000E596EF0
:100998000FD0000E5C6E000E5B6E900E5B5C010E5D
:1009A8005C58D8B003D05B4A5C2AF7D7594A5A2A10
:1009B8005750595C58505A58D8B01200EAD7586E58
:1009C800A6B2FED758C0A9FF57C0A8FFA69EA68406
:1009D800F29E550EA76EAA0EA76EA682F28EA6B23A
:1009E800FED7A69412009490949294949496949816
:1009F800949A949C949E93969280928292849286E2
:100A08009288928A93809392939493881200C186D5
:100A1800C194C192C180C18AC188C094C082C0906B
:100A2800C08EC08AC088C096C2801200000E586E60
:100A3800000E576E585007E1040E575CD8B01200EC
:100A4800574A582AF7D7120000EE01F0400EEE6A16
:100A5800E806FDE169906992000EF86E00014FEF1B
:100A680001F0D59CD59AD586630ED76EC00ED66E8A
:100A7800D58EF294F28AF28C1200576EA6B0FED789
:100A880057C0A9FFA69EA680A6B0FED7A850120000
:100A9800000E826E81961200F288F28AF28E12009F
:0A0AA800F19CF292F2881200120095
:020000040020DA
:08000000FFFFFFFFFFFFFFFF00
:020000040030CA
:0E000000FF02181EFF8181FF0C000C000C0097
:00000001FF
